{
  "contractName": "EducationContract",
  "abi": [
    {
      "constant": true,
      "inputs": [
        {
          "internalType": "uint256",
          "name": "",
          "type": "uint256"
        }
      ],
      "name": "record",
      "outputs": [
        {
          "internalType": "string",
          "name": "record_id",
          "type": "string"
        },
        {
          "internalType": "string",
          "name": "record_name",
          "type": "string"
        },
        {
          "internalType": "string",
          "name": "description",
          "type": "string"
        },
        {
          "internalType": "string",
          "name": "timestamp",
          "type": "string"
        },
        {
          "internalType": "string",
          "name": "ipfsHash",
          "type": "string"
        }
      ],
      "payable": false,
      "stateMutability": "view",
      "type": "function"
    },
    {
      "constant": true,
      "inputs": [
        {
          "internalType": "address",
          "name": "",
          "type": "address"
        },
        {
          "internalType": "uint256",
          "name": "",
          "type": "uint256"
        }
      ],
      "name": "students",
      "outputs": [
        {
          "internalType": "string",
          "name": "record_id",
          "type": "string"
        },
        {
          "internalType": "string",
          "name": "record_name",
          "type": "string"
        },
        {
          "internalType": "string",
          "name": "description",
          "type": "string"
        },
        {
          "internalType": "string",
          "name": "timestamp",
          "type": "string"
        },
        {
          "internalType": "string",
          "name": "ipfsHash",
          "type": "string"
        }
      ],
      "payable": false,
      "stateMutability": "view",
      "type": "function"
    },
    {
      "constant": false,
      "inputs": [
        {
          "internalType": "string",
          "name": "_record_id",
          "type": "string"
        },
        {
          "internalType": "address",
          "name": "_student",
          "type": "address"
        },
        {
          "internalType": "string",
          "name": "_record_name",
          "type": "string"
        },
        {
          "internalType": "string",
          "name": "_description",
          "type": "string"
        },
        {
          "internalType": "string",
          "name": "_timestamp",
          "type": "string"
        },
        {
          "internalType": "string",
          "name": "_ipfsHash",
          "type": "string"
        }
      ],
      "name": "addReport",
      "outputs": [
        {
          "internalType": "uint256",
          "name": "",
          "type": "uint256"
        }
      ],
      "payable": false,
      "stateMutability": "nonpayable",
      "type": "function"
    },
    {
      "constant": true,
      "inputs": [
        {
          "internalType": "address",
          "name": "_id",
          "type": "address"
        }
      ],
      "name": "getAllrecordDetails",
      "outputs": [
        {
          "components": [
            {
              "internalType": "string",
              "name": "record_id",
              "type": "string"
            },
            {
              "internalType": "string",
              "name": "record_name",
              "type": "string"
            },
            {
              "internalType": "string",
              "name": "description",
              "type": "string"
            },
            {
              "internalType": "string",
              "name": "timestamp",
              "type": "string"
            },
            {
              "internalType": "string",
              "name": "ipfsHash",
              "type": "string"
            }
          ],
          "internalType": "struct EducationContract.RecordDetails[]",
          "name": "",
          "type": "tuple[]"
        }
      ],
      "payable": false,
      "stateMutability": "view",
      "type": "function"
    }
  ],
  "bytecode": "0x608060405234801561001057600080fd5b50610ed3806100206000396000f3fe608060405234801561001057600080fd5b506004361061004c5760003560e01c80631c0c4455146100515780632c16cd8a1461007a5780632eb361541461009e57806358b88d4b146100be575b600080fd5b61006461005f366004610a5f565b6100d1565b6040516100719190610d2c565b60405180910390f35b61008d610088366004610bbd565b6104b2565b604051610071959493929190610d3d565b6100b16100ac366004610abf565b6107b2565b6040516100719190610da9565b61008d6100cc366004610a85565b61089e565b60608060016000846001600160a01b03166001600160a01b031681526020019081526020016000208054905060405190808252806020026020018201604052801561013657816020015b610123610925565b81526020019060019003908161011b5790505b50905060005b6001600160a01b0384166000908152600160205260409020548110156104ab576001600160a01b038416600090815260016020526040812080548390811061018057fe5b600091825260209182902060408051600593909302909101805460026001821615610100026000190190911604601f8101859004909402830160c090810190925260a08301848152909450919284928492909184918401828280156102265780601f106101fb57610100808354040283529160200191610226565b820191906000526020600020905b81548152906001019060200180831161020957829003601f168201915b50505050508152602001600182018054600181600116156101000203166002900480601f0160208091040260200160405190810160405280929190818152602001828054600181600116156101000203166002900480156102c85780601f1061029d576101008083540402835291602001916102c8565b820191906000526020600020905b8154815290600101906020018083116102ab57829003601f168201915b5050509183525050600282810180546040805160206001841615610100026000190190931694909404601f8101839004830285018301909152808452938101939083018282801561035a5780601f1061032f5761010080835404028352916020019161035a565b820191906000526020600020905b81548152906001019060200180831161033d57829003601f168201915b505050918352505060038201805460408051602060026001851615610100026000190190941693909304601f81018490048402820184019092528181529382019392918301828280156103ee5780601f106103c3576101008083540402835291602001916103ee565b820191906000526020600020905b8154815290600101906020018083116103d157829003601f168201915b505050918352505060048201805460408051602060026001851615610100026000190190941693909304601f81018490048402820184019092528181529382019392918301828280156104825780601f1061045757610100808354040283529160200191610482565b820191906000526020600020905b81548152906001019060200180831161046557829003601f168201915b50505050508152505083838151811061049757fe5b60209081029190910101525060010161013c565b5092915050565b600081815481106104bf57fe5b60009182526020918290206005919091020180546040805160026001841615610100026000190190931692909204601f8101859004850283018501909152808252919350918391908301828280156105585780601f1061052d57610100808354040283529160200191610558565b820191906000526020600020905b81548152906001019060200180831161053b57829003601f168201915b505050505090806001018054600181600116156101000203166002900480601f0160208091040260200160405190810160405280929190818152602001828054600181600116156101000203166002900480156105f65780601f106105cb576101008083540402835291602001916105f6565b820191906000526020600020905b8154815290600101906020018083116105d957829003601f168201915b50505060028085018054604080516020601f60001961010060018716150201909416959095049283018590048502810185019091528181529596959450909250908301828280156106885780601f1061065d57610100808354040283529160200191610688565b820191906000526020600020905b81548152906001019060200180831161066b57829003601f168201915b5050505060038301805460408051602060026001851615610100026000190190941693909304601f81018490048402820184019092528181529495949350908301828280156107185780601f106106ed57610100808354040283529160200191610718565b820191906000526020600020905b8154815290600101906020018083116106fb57829003601f168201915b5050505060048301805460408051602060026001851615610100026000190190941693909304601f81018490048402820184019092528181529495949350908301828280156107a85780601f1061077d576101008083540402835291602001916107a8565b820191906000526020600020905b81548152906001019060200180831161078b57829003601f168201915b5050505050905085565b6001600160a01b0385166000908152600160208181526040808420815160a0810183528b81528084018a905291820188905260608201879052608082018690528054938401808255908552828520825180519295939460059094029091019261082092849290910190610954565b5060208281015180516108399260018501920190610954565b5060408201518051610855916002840191602090910190610954565b5060608201518051610871916003840191602090910190610954565b506080820151805161088d916004840191602090910190610954565b5060019a9950505050505050505050565b600160205281600052604060002081815481106108b757fe5b60009182526020918290206005919091020180546040805160026001841615610100026000190190931692909204601f8101859004850283018501909152808252919450925083918301828280156105585780601f1061052d57610100808354040283529160200191610558565b6040518060a0016040528060608152602001606081526020016060815260200160608152602001606081525090565b828054600181600116156101000203166002900490600052602060002090601f016020900481019282601f1061099557805160ff19168380011785556109c2565b828001600101855582156109c2579182015b828111156109c25782518255916020019190600101906109a7565b506109ce9291506109d2565b5090565b6109ec91905b808211156109ce57600081556001016109d8565b90565b80356109fa81610e70565b92915050565b600082601f830112610a1157600080fd5b8135610a24610a1f82610dde565b610db7565b91508082526020830160208301858383011115610a4057600080fd5b610a4b838284610e2a565b50505092915050565b80356109fa81610e87565b600060208284031215610a7157600080fd5b6000610a7d84846109ef565b949350505050565b60008060408385031215610a9857600080fd5b6000610aa485856109ef565b9250506020610ab585828601610a54565b9150509250929050565b60008060008060008060c08789031215610ad857600080fd5b863567ffffffffffffffff811115610aef57600080fd5b610afb89828a01610a00565b9650506020610b0c89828a016109ef565b955050604087013567ffffffffffffffff811115610b2957600080fd5b610b3589828a01610a00565b945050606087013567ffffffffffffffff811115610b5257600080fd5b610b5e89828a01610a00565b935050608087013567ffffffffffffffff811115610b7b57600080fd5b610b8789828a01610a00565b92505060a087013567ffffffffffffffff811115610ba457600080fd5b610bb089828a01610a00565b9150509295509295509295565b600060208284031215610bcf57600080fd5b6000610a7d8484610a54565b6000610be78383610c94565b9392505050565b6000610bf982610e0c565b610c038185610e10565b935083602082028501610c1585610e06565b8060005b85811015610c4f5784840389528151610c328582610bdb565b9450610c3d83610e06565b60209a909a0199925050600101610c19565b5091979650505050505050565b6000610c6782610e0c565b610c718185610e10565b9350610c81818560208601610e36565b610c8a81610e66565b9093019392505050565b805160a080845260009190840190610cac8282610c5c565b91505060208301518482036020860152610cc68282610c5c565b91505060408301518482036040860152610ce08282610c5c565b91505060608301518482036060860152610cfa8282610c5c565b91505060808301518482036080860152610d148282610c5c565b95945050505050565b610d26816109ec565b82525050565b60208082528101610be78184610bee565b60a08082528101610d4e8188610c5c565b90508181036020830152610d628187610c5c565b90508181036040830152610d768186610c5c565b90508181036060830152610d8a8185610c5c565b90508181036080830152610d9e8184610c5c565b979650505050505050565b602081016109fa8284610d1d565b60405181810167ffffffffffffffff81118282101715610dd657600080fd5b604052919050565b600067ffffffffffffffff821115610df557600080fd5b506020601f91909101601f19160190565b60200190565b5190565b90815260200190565b60006001600160a01b0382166109fa565b82818337506000910152565b60005b83811015610e51578181015183820152602001610e39565b83811115610e60576000848401525b50505050565b601f01601f191690565b610e7981610e19565b8114610e8457600080fd5b50565b610e79816109ec56fea365627a7a72315820143a42bf7d190ffc105d362b5299444311d2032ea134dc475c3f0850fcb857486c6578706572696d656e74616cf564736f6c63430005110040",
  "source": "pragma solidity ^0.5.0;\r\npragma experimental ABIEncoderV2;\r\n\r\ncontract EducationContract {\r\n  struct RecordDetails {\r\n        string record_id;\r\n        string record_name;\r\n        string description;\r\n        string timestamp;\r\n        string ipfsHash;\r\n    }\r\n\r\n    RecordDetails[] public record;\r\n    mapping(address => RecordDetails[]) public students;\r\n\r\n    function addReport(string memory _record_id,address _student, string memory _record_name, string memory _description, string memory _timestamp, string memory _ipfsHash) public returns(uint) {\r\n\r\n        students[_student].push(RecordDetails(_record_id,_record_name,_description,_timestamp,_ipfsHash));\r\n        return 1;\r\n    }\r\n\r\n    //function getPatCount() public view returns(uint) {\r\n    //    return record.length;\r\n    //}\r\n\r\n\r\n    function getAllrecordDetails(address _id) public view returns (RecordDetails[] memory)\r\n    {\r\n        RecordDetails[] memory id = new RecordDetails[](students[_id].length);\r\n        for (uint i = 0; i < students[_id].length; i++) {\r\n            RecordDetails storage temprecord = students[_id][i];\r\n            id[i] = temprecord;\r\n        }\r\n        return id;\r\n    }\r\n\r\n    //function getPat(uint index) public view returns (uint, string memory, string memory,string memory, string memory)\r\n  //  {\r\n    //    return (record[index].record_id, record[index].record_name, record[index].description, record[index].timestamp, record[index].ipfsHash);\r\n  //  }\r\n\r\n    // function getPat2(uint index) public view returns(string memory, uint, string memory, string memory)\r\n    // {\r\n    //     return (record[index].par_rem, record[index].fee, record[index].message, record[index].ipfsHash);\r\n    // }\r\n}\r\n",
  "sourcePath": "C:\\Users\\Pratiksha Andhare\\Downloads\\BT\\git-push\\git-push\\contracts\\EducationContract.sol",
  "compiler": {
    "name": "solc",
    "version": "0.5.17+commit.d19bba13.Emscripten.clang"
  },
  "schemaVersion": "3.4.16",
  "updatedAt": "2024-04-25T13:58:14.067Z",
  "devdoc": {
    "methods": {}
  },
  "userdoc": {
    "methods": {}
  }
}