{
  "contractName": "SimpleStorage",
  "abi": [
    {
      "constant": true,
      "inputs": [
        {
          "internalType": "address",
          "name": "",
          "type": "address"
        },
        {
          "internalType": "uint256",
          "name": "",
          "type": "uint256"
        }
      ],
      "name": "institute",
      "outputs": [
        {
          "internalType": "string",
          "name": "record_id",
          "type": "string"
        },
        {
          "internalType": "string",
          "name": "timestamp",
          "type": "string"
        },
        {
          "internalType": "string",
          "name": "record_code",
          "type": "string"
        },
        {
          "internalType": "string",
          "name": "description",
          "type": "string"
        }
      ],
      "payable": false,
      "stateMutability": "view",
      "type": "function"
    },
    {
      "constant": true,
      "inputs": [
        {
          "internalType": "uint256",
          "name": "",
          "type": "uint256"
        }
      ],
      "name": "record",
      "outputs": [
        {
          "internalType": "string",
          "name": "record_id",
          "type": "string"
        },
        {
          "internalType": "string",
          "name": "timestamp",
          "type": "string"
        },
        {
          "internalType": "string",
          "name": "record_code",
          "type": "string"
        },
        {
          "internalType": "string",
          "name": "description",
          "type": "string"
        }
      ],
      "payable": false,
      "stateMutability": "view",
      "type": "function"
    },
    {
      "constant": false,
      "inputs": [
        {
          "internalType": "string",
          "name": "_record_id",
          "type": "string"
        },
        {
          "internalType": "address",
          "name": "institute_id",
          "type": "address"
        },
        {
          "internalType": "string",
          "name": "_timestamp",
          "type": "string"
        },
        {
          "internalType": "string",
          "name": "_record_code",
          "type": "string"
        },
        {
          "internalType": "string",
          "name": "_description",
          "type": "string"
        }
      ],
      "name": "addrecordReport",
      "outputs": [
        {
          "internalType": "uint256",
          "name": "",
          "type": "uint256"
        }
      ],
      "payable": false,
      "stateMutability": "nonpayable",
      "type": "function"
    },
    {
      "constant": true,
      "inputs": [
        {
          "internalType": "address",
          "name": "_institute_id",
          "type": "address"
        }
      ],
      "name": "getAllrecordDetails",
      "outputs": [
        {
          "components": [
            {
              "internalType": "string",
              "name": "record_id",
              "type": "string"
            },
            {
              "internalType": "string",
              "name": "timestamp",
              "type": "string"
            },
            {
              "internalType": "string",
              "name": "record_code",
              "type": "string"
            },
            {
              "internalType": "string",
              "name": "description",
              "type": "string"
            }
          ],
          "internalType": "struct SimpleStorage.RecordDetails[]",
          "name": "",
          "type": "tuple[]"
        }
      ],
      "payable": false,
      "stateMutability": "view",
      "type": "function"
    }
  ],
  "bytecode": "0x608060405234801561001057600080fd5b50610d2a806100206000396000f3fe608060405234801561001057600080fd5b506004361061004c5760003560e01c80631c0c4455146100515780632c16cd8a1461007a5780637eba97141461009d578063ae2bdc6a146100b0575b600080fd5b61006461005f36600461090f565b6100d0565b6040516100719190610b98565b60405180910390f35b61008d610088366004610a43565b61041d565b6040516100719493929190610ba9565b61008d6100ab366004610935565b61068d565b6100c36100be36600461096f565b610714565b6040516100719190610c00565b60608060016000846001600160a01b03166001600160a01b031681526020019081526020016000208054905060405190808252806020026020018201604052801561013557816020015b6101226107dc565b81526020019060019003908161011a5790505b50905060005b6001600160a01b038416600090815260016020526040902054811015610416576001600160a01b038416600090815260016020526040812080548390811061017f57fe5b600091825260209182902060408051600493909302909101805460026001821615610100026000190190911604601f8101859004909402830160a090810190925260808301848152909450919284928492909184918401828280156102255780601f106101fa57610100808354040283529160200191610225565b820191906000526020600020905b81548152906001019060200180831161020857829003601f168201915b50505050508152602001600182018054600181600116156101000203166002900480601f0160208091040260200160405190810160405280929190818152602001828054600181600116156101000203166002900480156102c75780601f1061029c576101008083540402835291602001916102c7565b820191906000526020600020905b8154815290600101906020018083116102aa57829003601f168201915b5050509183525050600282810180546040805160206001841615610100026000190190931694909404601f810183900483028501830190915280845293810193908301828280156103595780601f1061032e57610100808354040283529160200191610359565b820191906000526020600020905b81548152906001019060200180831161033c57829003601f168201915b505050918352505060038201805460408051602060026001851615610100026000190190941693909304601f81018490048402820184019092528181529382019392918301828280156103ed5780601f106103c2576101008083540402835291602001916103ed565b820191906000526020600020905b8154815290600101906020018083116103d057829003601f168201915b50505050508152505083838151811061040257fe5b60209081029190910101525060010161013b565b5092915050565b6000818154811061042a57fe5b60009182526020918290206004919091020180546040805160026001841615610100026000190190931692909204601f8101859004850283018501909152808252919350918391908301828280156104c35780601f10610498576101008083540402835291602001916104c3565b820191906000526020600020905b8154815290600101906020018083116104a657829003601f168201915b505050505090806001018054600181600116156101000203166002900480601f0160208091040260200160405190810160405280929190818152602001828054600181600116156101000203166002900480156105615780601f1061053657610100808354040283529160200191610561565b820191906000526020600020905b81548152906001019060200180831161054457829003601f168201915b50505060028085018054604080516020601f60001961010060018716150201909416959095049283018590048502810185019091528181529596959450909250908301828280156105f35780601f106105c8576101008083540402835291602001916105f3565b820191906000526020600020905b8154815290600101906020018083116105d657829003601f168201915b5050505060038301805460408051602060026001851615610100026000190190941693909304601f81018490048402820184019092528181529495949350908301828280156106835780601f1061065857610100808354040283529160200191610683565b820191906000526020600020905b81548152906001019060200180831161066657829003601f168201915b5050505050905084565b600160205281600052604060002081815481106106a657fe5b60009182526020918290206004919091020180546040805160026001841615610100026000190190931692909204601f8101859004850283018501909152808252919450925083918301828280156104c35780601f10610498576101008083540402835291602001916104c3565b6001600160a01b038416600090815260016020818152604080842081516080810183528a8152808401899052918201879052606082018690528054938401808255908552828520825180519295939460049094029091019261077b92849290910190610804565b5060208281015180516107949260018501920190610804565b50604082015180516107b0916002840191602090910190610804565b50606082015180516107cc916003840191602090910190610804565b5060019998505050505050505050565b6040518060800160405280606081526020016060815260200160608152602001606081525090565b828054600181600116156101000203166002900490600052602060002090601f016020900481019282601f1061084557805160ff1916838001178555610872565b82800160010185558215610872579182015b82811115610872578251825591602001919060010190610857565b5061087e929150610882565b5090565b61089c91905b8082111561087e5760008155600101610888565b90565b80356108aa81610cc7565b92915050565b600082601f8301126108c157600080fd5b81356108d46108cf82610c35565b610c0e565b915080825260208301602083018583830111156108f057600080fd5b6108fb838284610c81565b50505092915050565b80356108aa81610cde565b60006020828403121561092157600080fd5b600061092d848461089f565b949350505050565b6000806040838503121561094857600080fd5b6000610954858561089f565b925050602061096585828601610904565b9150509250929050565b600080600080600060a0868803121561098757600080fd5b853567ffffffffffffffff81111561099e57600080fd5b6109aa888289016108b0565b95505060206109bb8882890161089f565b945050604086013567ffffffffffffffff8111156109d857600080fd5b6109e4888289016108b0565b935050606086013567ffffffffffffffff811115610a0157600080fd5b610a0d888289016108b0565b925050608086013567ffffffffffffffff811115610a2a57600080fd5b610a36888289016108b0565b9150509295509295909350565b600060208284031215610a5557600080fd5b600061092d8484610904565b6000610a6d8383610b1a565b9392505050565b6000610a7f82610c63565b610a898185610c67565b935083602082028501610a9b85610c5d565b8060005b85811015610ad55784840389528151610ab88582610a61565b9450610ac383610c5d565b60209a909a0199925050600101610a9f565b5091979650505050505050565b6000610aed82610c63565b610af78185610c67565b9350610b07818560208601610c8d565b610b1081610cbd565b9093019392505050565b8051608080845260009190840190610b328282610ae2565b91505060208301518482036020860152610b4c8282610ae2565b91505060408301518482036040860152610b668282610ae2565b91505060608301518482036060860152610b808282610ae2565b95945050505050565b610b928161089c565b82525050565b60208082528101610a6d8184610a74565b60808082528101610bba8187610ae2565b90508181036020830152610bce8186610ae2565b90508181036040830152610be28185610ae2565b90508181036060830152610bf68184610ae2565b9695505050505050565b602081016108aa8284610b89565b60405181810167ffffffffffffffff81118282101715610c2d57600080fd5b604052919050565b600067ffffffffffffffff821115610c4c57600080fd5b506020601f91909101601f19160190565b60200190565b5190565b90815260200190565b60006001600160a01b0382166108aa565b82818337506000910152565b60005b83811015610ca8578181015183820152602001610c90565b83811115610cb7576000848401525b50505050565b601f01601f191690565b610cd081610c70565b8114610cdb57600080fd5b50565b610cd08161089c56fea365627a7a72315820a8c07b06b795518c51e440294ca76c39cf1e791f00d8a13cae2b4b68758893996c6578706572696d656e74616cf564736f6c63430005110040",
  "source": "pragma solidity >=0.4.22 <0.7.0;\r\npragma experimental ABIEncoderV2;\r\n\r\ncontract SimpleStorage {\r\n  struct RecordDetails {\r\n        string record_id;\r\n        string timestamp;\r\n        string record_code;\r\n        string description;\r\n    }\r\n\r\n    RecordDetails[] public record;\r\n    mapping(address => RecordDetails[]) public institute;\r\n\r\n    function addrecordReport(string memory _record_id,address institute_id, string memory _timestamp, string memory _record_code, string memory _description) public returns(uint) {\r\n\r\n\r\n\r\n        institute[institute_id].push(RecordDetails(_record_id,_timestamp,_record_code,_description));\r\n        return 1;\r\n    }\r\n\r\n  //  function getrecordCount() public view returns(uint) {\r\n    //    return record.length;\r\n  //  }\r\n\r\n  //  function getrecordBlock(uint index) public view returns (string memory, string memory, string memory, string memory)\r\n  //  {\r\n  //      return (record[index].record_id, record[index].timestamp, record[index].record_code, record[index].description);\r\n  //  }\r\n    function getAllrecordDetails(address _institute_id) public view returns (RecordDetails[] memory)\r\n    {\r\n        RecordDetails[] memory id = new RecordDetails[](institute[_institute_id].length);\r\n        for (uint i = 0; i < institute[_institute_id].length; i++) {\r\n            RecordDetails storage temprecord = institute[_institute_id][i];\r\n            id[i] = temprecord;\r\n        }\r\n        return id;\r\n    }\r\n}\r\n",
  "sourcePath": "C:\\Users\\Pratiksha Andhare\\Downloads\\BT\\git-push\\git-push\\contracts\\SimpleStorage.sol",
  "compiler": {
    "name": "solc",
    "version": "0.5.17+commit.d19bba13.Emscripten.clang"
  },
  "schemaVersion": "3.4.16",
  "updatedAt": "2024-04-25T17:29:49.914Z",
  "devdoc": {
    "methods": {}
  },
  "userdoc": {
    "methods": {}
  }
}