{
  "contractName": "EducationContract",
  "abi": [
    {
      "constant": true,
      "inputs": [
        {
          "name": "",
          "type": "uint256"
        }
      ],
      "name": "record",
      "outputs": [
        {
          "name": "record_id",
          "type": "string"
        },
        {
          "name": "record_name",
          "type": "string"
        },
        {
          "name": "description",
          "type": "string"
        },
        {
          "name": "timestamp",
          "type": "string"
        },
        {
          "name": "ipfsHash",
          "type": "string"
        }
      ],
      "payable": false,
      "stateMutability": "view",
      "type": "function"
    },
    {
      "constant": true,
      "inputs": [
        {
          "name": "",
          "type": "address"
        },
        {
          "name": "",
          "type": "uint256"
        }
      ],
      "name": "students",
      "outputs": [
        {
          "name": "record_id",
          "type": "string"
        },
        {
          "name": "record_name",
          "type": "string"
        },
        {
          "name": "description",
          "type": "string"
        },
        {
          "name": "timestamp",
          "type": "string"
        },
        {
          "name": "ipfsHash",
          "type": "string"
        }
      ],
      "payable": false,
      "stateMutability": "view",
      "type": "function"
    },
    {
      "constant": false,
      "inputs": [
        {
          "name": "_record_id",
          "type": "string"
        },
        {
          "name": "_student",
          "type": "address"
        },
        {
          "name": "_record_name",
          "type": "string"
        },
        {
          "name": "_description",
          "type": "string"
        },
        {
          "name": "_timestamp",
          "type": "string"
        },
        {
          "name": "_ipfsHash",
          "type": "string"
        }
      ],
      "name": "addReport",
      "outputs": [
        {
          "name": "",
          "type": "uint256"
        }
      ],
      "payable": false,
      "stateMutability": "nonpayable",
      "type": "function"
    },
    {
      "constant": true,
      "inputs": [
        {
          "name": "_id",
          "type": "address"
        }
      ],
      "name": "getAllrecordDetails",
      "outputs": [
        {
          "components": [
            {
              "name": "record_id",
              "type": "string"
            },
            {
              "name": "record_name",
              "type": "string"
            },
            {
              "name": "description",
              "type": "string"
            },
            {
              "name": "timestamp",
              "type": "string"
            },
            {
              "name": "ipfsHash",
              "type": "string"
            }
          ],
          "name": "",
          "type": "tuple[]"
        }
      ],
      "payable": false,
      "stateMutability": "view",
      "type": "function"
    }
  ],
  "bytecode": "0x608060405234801561001057600080fd5b506113f0806100206000396000f3fe608060405260043610610062576000357c0100000000000000000000000000000000000000000000000000000000900463ffffffff1680631c0c4455146100675780632c16cd8a146100a45780632eb36154146100e557806358b88d4b14610122575b600080fd5b34801561007357600080fd5b5061008e60048036036100899190810190610f0d565b610163565b60405161009b91906111e1565b60405180910390f35b3480156100b057600080fd5b506100cb60048036036100c69190810190611073565b6105fd565b6040516100dc959493929190611203565b60405180910390f35b3480156100f157600080fd5b5061010c60048036036101079190810190610f72565b61093a565b6040516101199190611279565b60405180910390f35b34801561012e57600080fd5b5061014960048036036101449190810190610f36565b610a70565b60405161015a959493929190611203565b60405180910390f35b606080600160008473ffffffffffffffffffffffffffffffffffffffff1673ffffffffffffffffffffffffffffffffffffffff168152602001908152602001600020805490506040519080825280602002602001820160405280156101e257816020015b6101cf610dba565b8152602001906001900390816101c75790505b50905060008090505b600160008573ffffffffffffffffffffffffffffffffffffffff1673ffffffffffffffffffffffffffffffffffffffff168152602001908152602001600020805490508110156105f3576000600160008673ffffffffffffffffffffffffffffffffffffffff1673ffffffffffffffffffffffffffffffffffffffff1681526020019081526020016000208281548110151561028357fe5b906000526020600020906005020190508060a06040519081016040529081600082018054600181600116156101000203166002900480601f0160208091040260200160405190810160405280929190818152602001828054600181600116156101000203166002900480156103395780601f1061030e57610100808354040283529160200191610339565b820191906000526020600020905b81548152906001019060200180831161031c57829003601f168201915b50505050508152602001600182018054600181600116156101000203166002900480601f0160208091040260200160405190810160405280929190818152602001828054600181600116156101000203166002900480156103db5780601f106103b0576101008083540402835291602001916103db565b820191906000526020600020905b8154815290600101906020018083116103be57829003601f168201915b50505050508152602001600282018054600181600116156101000203166002900480601f01602080910402602001604051908101604052809291908181526020018280546001816001161561010002031660029004801561047d5780601f106104525761010080835404028352916020019161047d565b820191906000526020600020905b81548152906001019060200180831161046057829003601f168201915b50505050508152602001600382018054600181600116156101000203166002900480601f01602080910402602001604051908101604052809291908181526020018280546001816001161561010002031660029004801561051f5780601f106104f45761010080835404028352916020019161051f565b820191906000526020600020905b81548152906001019060200180831161050257829003601f168201915b50505050508152602001600482018054600181600116156101000203166002900480601f0160208091040260200160405190810160405280929190818152602001828054600181600116156101000203166002900480156105c15780601f10610596576101008083540402835291602001916105c1565b820191906000526020600020905b8154815290600101906020018083116105a457829003601f168201915b50505050508152505083838151811015156105d857fe5b906020019060200201819052505080806001019150506101eb565b5080915050919050565b60008181548110151561060c57fe5b9060005260206000209060050201600091509050806000018054600181600116156101000203166002900480601f0160208091040260200160405190810160405280929190818152602001828054600181600116156101000203166002900480156106b85780601f1061068d576101008083540402835291602001916106b8565b820191906000526020600020905b81548152906001019060200180831161069b57829003601f168201915b505050505090806001018054600181600116156101000203166002900480601f0160208091040260200160405190810160405280929190818152602001828054600181600116156101000203166002900480156107565780601f1061072b57610100808354040283529160200191610756565b820191906000526020600020905b81548152906001019060200180831161073957829003601f168201915b505050505090806002018054600181600116156101000203166002900480601f0160208091040260200160405190810160405280929190818152602001828054600181600116156101000203166002900480156107f45780601f106107c9576101008083540402835291602001916107f4565b820191906000526020600020905b8154815290600101906020018083116107d757829003601f168201915b505050505090806003018054600181600116156101000203166002900480601f0160208091040260200160405190810160405280929190818152602001828054600181600116156101000203166002900480156108925780601f1061086757610100808354040283529160200191610892565b820191906000526020600020905b81548152906001019060200180831161087557829003601f168201915b505050505090806004018054600181600116156101000203166002900480601f0160208091040260200160405190810160405280929190818152602001828054600181600116156101000203166002900480156109305780601f1061090557610100808354040283529160200191610930565b820191906000526020600020905b81548152906001019060200180831161091357829003601f168201915b5050505050905085565b6000600160008773ffffffffffffffffffffffffffffffffffffffff1673ffffffffffffffffffffffffffffffffffffffff16815260200190815260200160002060a060405190810160405280898152602001878152602001868152602001858152602001848152509080600181540180825580915050906001820390600052602060002090600502016000909192909190915060008201518160000190805190602001906109ea929190610dea565b506020820151816001019080519060200190610a07929190610dea565b506040820151816002019080519060200190610a24929190610dea565b506060820151816003019080519060200190610a41929190610dea565b506080820151816004019080519060200190610a5e929190610dea565b50505050600190509695505050505050565b600160205281600052604060002081815481101515610a8b57fe5b906000526020600020906005020160009150915050806000018054600181600116156101000203166002900480601f016020809104026020016040519081016040528092919081815260200182805460018160011615610100020316600290048015610b385780601f10610b0d57610100808354040283529160200191610b38565b820191906000526020600020905b815481529060010190602001808311610b1b57829003601f168201915b505050505090806001018054600181600116156101000203166002900480601f016020809104026020016040519081016040528092919081815260200182805460018160011615610100020316600290048015610bd65780601f10610bab57610100808354040283529160200191610bd6565b820191906000526020600020905b815481529060010190602001808311610bb957829003601f168201915b505050505090806002018054600181600116156101000203166002900480601f016020809104026020016040519081016040528092919081815260200182805460018160011615610100020316600290048015610c745780601f10610c4957610100808354040283529160200191610c74565b820191906000526020600020905b815481529060010190602001808311610c5757829003601f168201915b505050505090806003018054600181600116156101000203166002900480601f016020809104026020016040519081016040528092919081815260200182805460018160011615610100020316600290048015610d125780601f10610ce757610100808354040283529160200191610d12565b820191906000526020600020905b815481529060010190602001808311610cf557829003601f168201915b505050505090806004018054600181600116156101000203166002900480601f016020809104026020016040519081016040528092919081815260200182805460018160011615610100020316600290048015610db05780601f10610d8557610100808354040283529160200191610db0565b820191906000526020600020905b815481529060010190602001808311610d9357829003601f168201915b5050505050905085565b60a06040519081016040528060608152602001606081526020016060815260200160608152602001606081525090565b828054600181600116156101000203166002900490600052602060002090601f016020900481019282601f10610e2b57805160ff1916838001178555610e59565b82800160010185558215610e59579182015b82811115610e58578251825591602001919060010190610e3d565b5b509050610e669190610e6a565b5090565b610e8c91905b80821115610e88576000816000905550600101610e70565b5090565b90565b6000610e9b8235611347565b905092915050565b600082601f8301121515610eb657600080fd5b8135610ec9610ec4826112c1565b611294565b91508082526020830160208301858383011115610ee557600080fd5b610ef0838284611363565b50505092915050565b6000610f058235611359565b905092915050565b600060208284031215610f1f57600080fd5b6000610f2d84828501610e8f565b91505092915050565b60008060408385031215610f4957600080fd5b6000610f5785828601610e8f565b9250506020610f6885828601610ef9565b9150509250929050565b60008060008060008060c08789031215610f8b57600080fd5b600087013567ffffffffffffffff811115610fa557600080fd5b610fb189828a01610ea3565b9650506020610fc289828a01610e8f565b955050604087013567ffffffffffffffff811115610fdf57600080fd5b610feb89828a01610ea3565b945050606087013567ffffffffffffffff81111561100857600080fd5b61101489828a01610ea3565b935050608087013567ffffffffffffffff81111561103157600080fd5b61103d89828a01610ea3565b92505060a087013567ffffffffffffffff81111561105a57600080fd5b61106689828a01610ea3565b9150509295509295509295565b60006020828403121561108557600080fd5b600061109384828501610ef9565b91505092915050565b60006110a7826112fa565b808452602084019350836020820285016110c0856112ed565b60005b848110156110f95783830388526110db838351611140565b92506110e682611310565b91506020880197506001810190506110c3565b508196508694505050505092915050565b600061111582611305565b808452611129816020860160208601611372565b611132816113a5565b602085010191505092915050565b600060a083016000830151848203600086015261115d828261110a565b91505060208301518482036020860152611177828261110a565b91505060408301518482036040860152611191828261110a565b915050606083015184820360608601526111ab828261110a565b915050608083015184820360808601526111c5828261110a565b9150508091505092915050565b6111db8161133d565b82525050565b600060208201905081810360008301526111fb818461109c565b905092915050565b600060a082019050818103600083015261121d818861110a565b90508181036020830152611231818761110a565b90508181036040830152611245818661110a565b90508181036060830152611259818561110a565b9050818103608083015261126d818461110a565b90509695505050505050565b600060208201905061128e60008301846111d2565b92915050565b6000604051905081810181811067ffffffffffffffff821117156112b757600080fd5b8060405250919050565b600067ffffffffffffffff8211156112d857600080fd5b601f19601f8301169050602081019050919050565b6000602082019050919050565b600081519050919050565b600081519050919050565b6000602082019050919050565b600073ffffffffffffffffffffffffffffffffffffffff82169050919050565b6000819050919050565b60006113528261131d565b9050919050565b6000819050919050565b82818337600083830152505050565b60005b83811015611390578082015181840152602081019050611375565b8381111561139f576000848401525b50505050565b6000601f19601f830116905091905056fea265627a7a7230582032fb0f38ca5938955bd37c45925c38b95d325d1af2aaeaf297235c705dbfc6ab6c6578706572696d656e74616cf50037",
  "source": "pragma solidity ^0.5.0;\r\npragma experimental ABIEncoderV2;\r\n\r\ncontract EducationContract {\r\n  struct RecordDetails {\r\n        string record_id;\r\n        string record_name;\r\n        string description;\r\n        string timestamp;\r\n        string ipfsHash;\r\n    }\r\n\r\n    RecordDetails[] public record;\r\n    mapping(address => RecordDetails[]) public students;\r\n\r\n    function addReport(string memory _record_id,address _student, string memory _record_name, string memory _description, string memory _timestamp, string memory _ipfsHash) public returns(uint) {\r\n\r\n        students[_student].push(RecordDetails(_record_id,_record_name,_description,_timestamp,_ipfsHash));\r\n        return 1;\r\n    }\r\n\r\n    //function getPatCount() public view returns(uint) {\r\n    //    return record.length;\r\n    //}\r\n\r\n\r\n    function getAllrecordDetails(address _id) public view returns (RecordDetails[] memory)\r\n    {\r\n        RecordDetails[] memory id = new RecordDetails[](students[_id].length);\r\n        for (uint i = 0; i < students[_id].length; i++) {\r\n            RecordDetails storage temprecord = students[_id][i];\r\n            id[i] = temprecord;\r\n        }\r\n        return id;\r\n    }\r\n\r\n    //function getPat(uint index) public view returns (uint, string memory, string memory,string memory, string memory)\r\n  //  {\r\n    //    return (record[index].record_id, record[index].record_name, record[index].description, record[index].timestamp, record[index].ipfsHash);\r\n  //  }\r\n\r\n    // function getPat2(uint index) public view returns(string memory, uint, string memory, string memory)\r\n    // {\r\n    //     return (record[index].par_rem, record[index].fee, record[index].message, record[index].ipfsHash);\r\n    // }\r\n}",
  "sourcePath": "C:\\Users\\Pratiksha Andhare\\Downloads\\BT\\git-push\\git-push\\contracts\\EducationContract.sol",
  "compiler": {
    "name": "solc",
    "version": "0.5.0+commit.1d4f565a.Emscripten.clang"
  },
  "schemaVersion": "3.4.16",
  "updatedAt": "2024-04-26T04:21:03.931Z",
  "networkType": "ethereum",
  "devdoc": {
    "methods": {}
  },
  "userdoc": {
    "methods": {}
  }
}