{
  "contractName": "SimpleStorage",
  "abi": [
    {
      "constant": true,
      "inputs": [
        {
          "name": "",
          "type": "uint256"
        }
      ],
      "name": "record",
      "outputs": [
        {
          "name": "record_id",
          "type": "string"
        },
        {
          "name": "timestamp",
          "type": "string"
        },
        {
          "name": "record_code",
          "type": "string"
        },
        {
          "name": "description",
          "type": "string"
        }
      ],
      "payable": false,
      "stateMutability": "view",
      "type": "function"
    },
    {
      "constant": true,
      "inputs": [
        {
          "name": "",
          "type": "address"
        },
        {
          "name": "",
          "type": "uint256"
        }
      ],
      "name": "institute",
      "outputs": [
        {
          "name": "record_id",
          "type": "string"
        },
        {
          "name": "timestamp",
          "type": "string"
        },
        {
          "name": "record_code",
          "type": "string"
        },
        {
          "name": "description",
          "type": "string"
        }
      ],
      "payable": false,
      "stateMutability": "view",
      "type": "function"
    },
    {
      "constant": false,
      "inputs": [
        {
          "name": "_record_id",
          "type": "string"
        },
        {
          "name": "institute_id",
          "type": "address"
        },
        {
          "name": "_timestamp",
          "type": "string"
        },
        {
          "name": "_record_code",
          "type": "string"
        },
        {
          "name": "_description",
          "type": "string"
        }
      ],
      "name": "addrecordReport",
      "outputs": [
        {
          "name": "",
          "type": "uint256"
        }
      ],
      "payable": false,
      "stateMutability": "nonpayable",
      "type": "function"
    },
    {
      "constant": true,
      "inputs": [
        {
          "name": "_institute_id",
          "type": "address"
        }
      ],
      "name": "getAllrecordDetails",
      "outputs": [
        {
          "components": [
            {
              "name": "record_id",
              "type": "string"
            },
            {
              "name": "timestamp",
              "type": "string"
            },
            {
              "name": "record_code",
              "type": "string"
            },
            {
              "name": "description",
              "type": "string"
            }
          ],
          "name": "",
          "type": "tuple[]"
        }
      ],
      "payable": false,
      "stateMutability": "view",
      "type": "function"
    }
  ],
  "bytecode": "0x608060405234801561001057600080fd5b5061118c806100206000396000f3fe608060405260043610610062576000357c0100000000000000000000000000000000000000000000000000000000900463ffffffff1680631c0c4455146100675780632c16cd8a146100a45780637eba9714146100e4578063ae2bdc6a14610124575b600080fd5b34801561007357600080fd5b5061008e60048036036100899190810190610d02565b610161565b60405161009b9190610f92565b60405180910390f35b3480156100b057600080fd5b506100cb60048036036100c69190810190610e3e565b610559565b6040516100db9493929190610fb4565b60405180910390f35b3480156100f057600080fd5b5061010b60048036036101069190810190610d2b565b6107f8565b60405161011b9493929190610fb4565b60405180910390f35b34801561013057600080fd5b5061014b60048036036101469190810190610d67565b610aa4565b6040516101589190611015565b60405180910390f35b606080600160008473ffffffffffffffffffffffffffffffffffffffff1673ffffffffffffffffffffffffffffffffffffffff168152602001908152602001600020805490506040519080825280602002602001820160405280156101e057816020015b6101cd610bb6565b8152602001906001900390816101c55790505b50905060008090505b600160008573ffffffffffffffffffffffffffffffffffffffff1673ffffffffffffffffffffffffffffffffffffffff1681526020019081526020016000208054905081101561054f576000600160008673ffffffffffffffffffffffffffffffffffffffff1673ffffffffffffffffffffffffffffffffffffffff1681526020019081526020016000208281548110151561028157fe5b906000526020600020906004020190508060806040519081016040529081600082018054600181600116156101000203166002900480601f0160208091040260200160405190810160405280929190818152602001828054600181600116156101000203166002900480156103375780601f1061030c57610100808354040283529160200191610337565b820191906000526020600020905b81548152906001019060200180831161031a57829003601f168201915b50505050508152602001600182018054600181600116156101000203166002900480601f0160208091040260200160405190810160405280929190818152602001828054600181600116156101000203166002900480156103d95780601f106103ae576101008083540402835291602001916103d9565b820191906000526020600020905b8154815290600101906020018083116103bc57829003601f168201915b50505050508152602001600282018054600181600116156101000203166002900480601f01602080910402602001604051908101604052809291908181526020018280546001816001161561010002031660029004801561047b5780601f106104505761010080835404028352916020019161047b565b820191906000526020600020905b81548152906001019060200180831161045e57829003601f168201915b50505050508152602001600382018054600181600116156101000203166002900480601f01602080910402602001604051908101604052809291908181526020018280546001816001161561010002031660029004801561051d5780601f106104f25761010080835404028352916020019161051d565b820191906000526020600020905b81548152906001019060200180831161050057829003601f168201915b505050505081525050838381518110151561053457fe5b906020019060200201819052505080806001019150506101e9565b5080915050919050565b60008181548110151561056857fe5b9060005260206000209060040201600091509050806000018054600181600116156101000203166002900480601f0160208091040260200160405190810160405280929190818152602001828054600181600116156101000203166002900480156106145780601f106105e957610100808354040283529160200191610614565b820191906000526020600020905b8154815290600101906020018083116105f757829003601f168201915b505050505090806001018054600181600116156101000203166002900480601f0160208091040260200160405190810160405280929190818152602001828054600181600116156101000203166002900480156106b25780601f10610687576101008083540402835291602001916106b2565b820191906000526020600020905b81548152906001019060200180831161069557829003601f168201915b505050505090806002018054600181600116156101000203166002900480601f0160208091040260200160405190810160405280929190818152602001828054600181600116156101000203166002900480156107505780601f1061072557610100808354040283529160200191610750565b820191906000526020600020905b81548152906001019060200180831161073357829003601f168201915b505050505090806003018054600181600116156101000203166002900480601f0160208091040260200160405190810160405280929190818152602001828054600181600116156101000203166002900480156107ee5780601f106107c3576101008083540402835291602001916107ee565b820191906000526020600020905b8154815290600101906020018083116107d157829003601f168201915b5050505050905084565b60016020528160005260406000208181548110151561081357fe5b906000526020600020906004020160009150915050806000018054600181600116156101000203166002900480601f0160208091040260200160405190810160405280929190818152602001828054600181600116156101000203166002900480156108c05780601f10610895576101008083540402835291602001916108c0565b820191906000526020600020905b8154815290600101906020018083116108a357829003601f168201915b505050505090806001018054600181600116156101000203166002900480601f01602080910402602001604051908101604052809291908181526020018280546001816001161561010002031660029004801561095e5780601f106109335761010080835404028352916020019161095e565b820191906000526020600020905b81548152906001019060200180831161094157829003601f168201915b505050505090806002018054600181600116156101000203166002900480601f0160208091040260200160405190810160405280929190818152602001828054600181600116156101000203166002900480156109fc5780601f106109d1576101008083540402835291602001916109fc565b820191906000526020600020905b8154815290600101906020018083116109df57829003601f168201915b505050505090806003018054600181600116156101000203166002900480601f016020809104026020016040519081016040528092919081815260200182805460018160011615610100020316600290048015610a9a5780601f10610a6f57610100808354040283529160200191610a9a565b820191906000526020600020905b815481529060010190602001808311610a7d57829003601f168201915b5050505050905084565b6000600160008673ffffffffffffffffffffffffffffffffffffffff1673ffffffffffffffffffffffffffffffffffffffff16815260200190815260200160002060806040519081016040528088815260200186815260200185815260200184815250908060018154018082558091505090600182039060005260206000209060040201600090919290919091506000820151816000019080519060200190610b4e929190610bdf565b506020820151816001019080519060200190610b6b929190610bdf565b506040820151816002019080519060200190610b88929190610bdf565b506060820151816003019080519060200190610ba5929190610bdf565b505050506001905095945050505050565b608060405190810160405280606081526020016060815260200160608152602001606081525090565b828054600181600116156101000203166002900490600052602060002090601f016020900481019282601f10610c2057805160ff1916838001178555610c4e565b82800160010185558215610c4e579182015b82811115610c4d578251825591602001919060010190610c32565b5b509050610c5b9190610c5f565b5090565b610c8191905b80821115610c7d576000816000905550600101610c65565b5090565b90565b6000610c9082356110e3565b905092915050565b600082601f8301121515610cab57600080fd5b8135610cbe610cb98261105d565b611030565b91508082526020830160208301858383011115610cda57600080fd5b610ce58382846110ff565b50505092915050565b6000610cfa82356110f5565b905092915050565b600060208284031215610d1457600080fd5b6000610d2284828501610c84565b91505092915050565b60008060408385031215610d3e57600080fd5b6000610d4c85828601610c84565b9250506020610d5d85828601610cee565b9150509250929050565b600080600080600060a08688031215610d7f57600080fd5b600086013567ffffffffffffffff811115610d9957600080fd5b610da588828901610c98565b9550506020610db688828901610c84565b945050604086013567ffffffffffffffff811115610dd357600080fd5b610ddf88828901610c98565b935050606086013567ffffffffffffffff811115610dfc57600080fd5b610e0888828901610c98565b925050608086013567ffffffffffffffff811115610e2557600080fd5b610e3188828901610c98565b9150509295509295909350565b600060208284031215610e5057600080fd5b6000610e5e84828501610cee565b91505092915050565b6000610e7282611096565b80845260208401935083602082028501610e8b85611089565b60005b84811015610ec4578383038852610ea6838351610f0b565b9250610eb1826110ac565b9150602088019750600181019050610e8e565b508196508694505050505092915050565b6000610ee0826110a1565b808452610ef481602086016020860161110e565b610efd81611141565b602085010191505092915050565b60006080830160008301518482036000860152610f288282610ed5565b91505060208301518482036020860152610f428282610ed5565b91505060408301518482036040860152610f5c8282610ed5565b91505060608301518482036060860152610f768282610ed5565b9150508091505092915050565b610f8c816110d9565b82525050565b60006020820190508181036000830152610fac8184610e67565b905092915050565b60006080820190508181036000830152610fce8187610ed5565b90508181036020830152610fe28186610ed5565b90508181036040830152610ff68185610ed5565b9050818103606083015261100a8184610ed5565b905095945050505050565b600060208201905061102a6000830184610f83565b92915050565b6000604051905081810181811067ffffffffffffffff8211171561105357600080fd5b8060405250919050565b600067ffffffffffffffff82111561107457600080fd5b601f19601f8301169050602081019050919050565b6000602082019050919050565b600081519050919050565b600081519050919050565b6000602082019050919050565b600073ffffffffffffffffffffffffffffffffffffffff82169050919050565b6000819050919050565b60006110ee826110b9565b9050919050565b6000819050919050565b82818337600083830152505050565b60005b8381101561112c578082015181840152602081019050611111565b8381111561113b576000848401525b50505050565b6000601f19601f830116905091905056fea265627a7a723058206991c80d75825a8481cd8556aa7001d3200b842af3d0112768c361d07f48bcd96c6578706572696d656e74616cf50037",
  "source": "pragma solidity >=0.4.22 <0.7.0;\r\npragma experimental ABIEncoderV2;\r\n\r\ncontract SimpleStorage {\r\n  struct RecordDetails {\r\n        string record_id;\r\n        string timestamp;\r\n        string record_code;\r\n        string description;\r\n    }\r\n\r\n    RecordDetails[] public record;\r\n    mapping(address => RecordDetails[]) public institute;\r\n\r\n    function addrecordReport(string memory _record_id,address institute_id, string memory _timestamp, string memory _record_code, string memory _description) public returns(uint) {\r\n\r\n\r\n\r\n        institute[institute_id].push(RecordDetails(_record_id,_timestamp,_record_code,_description));\r\n        return 1;\r\n    }\r\n\r\n  //  function getrecordCount() public view returns(uint) {\r\n    //    return record.length;\r\n  //  }\r\n\r\n  //  function getrecordBlock(uint index) public view returns (string memory, string memory, string memory, string memory)\r\n  //  {\r\n  //      return (record[index].record_id, record[index].timestamp, record[index].record_code, record[index].description);\r\n  //  }\r\n    function getAllrecordDetails(address _institute_id) public view returns (RecordDetails[] memory)\r\n    {\r\n        RecordDetails[] memory id = new RecordDetails[](institute[_institute_id].length);\r\n        for (uint i = 0; i < institute[_institute_id].length; i++) {\r\n            RecordDetails storage temprecord = institute[_institute_id][i];\r\n            id[i] = temprecord;\r\n        }\r\n        return id;\r\n    }\r\n}",
  "sourcePath": "C:\\Users\\Pratiksha Andhare\\Downloads\\BT\\git-push\\git-push\\contracts\\SimpleStorage.sol",
  "compiler": {
    "name": "solc",
    "version": "0.5.0+commit.1d4f565a.Emscripten.clang"
  },
  "schemaVersion": "3.4.16",
  "updatedAt": "2024-04-25T19:30:29.108Z",
  "networkType": "ethereum",
  "devdoc": {
    "methods": {}
  },
  "userdoc": {
    "methods": {}
  }
}